:100000000C94010C0C94260C0C94260C0C94260CCD
:100010000C94260C0C94260C0C94260C0C94260C98
:100020000C94260C0C94260C0C949F0D0C94260C0E
:100030000C94260C0C94260C0C94260C0C94260C78
:100040000C94260C0C94260C0C94260C0C94260C68
:100050000C94260C0C94260C0C94260C0C94260C58
:100060000C94260C0C94260C0C94260C0C94260C48
:100070000C94260C0C94260C0C94260C0C94260C38
:100080000C94260C0C94260C0C94AB240C94F72D99
:100090000C94260C0C94260C0C94260C0C94260C18
:1000A0000C94260C0C94260C0C94260C0C94260C08
:1000B0000C94260C0C94260C0C94260C0C9479258C
:1000C0000C94260C0C9426290C94692F0C94260C65
:1000D0000C94260C0C94260C0C94260C0C94260CD8
:1000E0000C94260C0C94260C0C94260C0C94260CC8
:1000F0000C94260C0C94260C0C94260C0C94260CB8
:100100000C94260C0C94260C0C94260C0C94260CA7
:100110000C94422F0C9401290C94260C0C94260C60
:100120000C94260C0C94260C0C94260C0C94260C87
:100130000C94260C0C94260C0C94260C0C94E124A4
:100140000C945F0C0C9430280C94252E0C94260CE7
:100150000C94260C0C9478280C949F2F0C94260C4D
:100160000C94260C0C94260C0C94260C0C94260C47
:100170000C94260C0C94260C0C94260C0C94260C37
:100180000C94260C0C94260C0C94260C0C94260C27
:100190000C94260C0C94260C0C94260C0C94260C17
:1001A0000C94260C0C94260C0C94260C0C94260C07
:1001B0000C94260C0C94260C0C94260C0C94260CF7
:1001C0000C94260C0C94260C0C94260C0C94260CE7
:1001D0000C94260C0C94260C0C94260C0C94260CD7
:1001E0000C94260C0C94260C0C94260C0C94260CC7
:1001F0000C94260C0C943F640C94260C1E034300B4
:10020000680061006D0065006C0065006F006E00A5
:100210002D004D0069006E00690000002A034B00AC
:10022000610073007000650072002000260020004D
:100230004F007300770061006C00640020004700ED
:100240006D006200480000000403090409023E003A
:10025000020100C03209040000010202010005246D
:10026000001001042402060524060001070582038C
:100270000800FF09040100020A000000070504024B
:10028000100005070583021000051201100102008D
:100290000008D016B20401000102DC01490E4A0E2A
:1002A0004B0E4C0E4D0E4E0E4F0E500E530E540E66
:1002B000000000013A26BB26DA2651326D32713237
:1002C0004F0E72329335A635400007003A26BB2602
:1002D000DA2665326D3271324F0E72329335A635A1
:1002E000500007003A26BB26DA2669326D32713299
:1002F0004F0E72329335A635A40007003A26BB266E
:10030000DA26E635223626364F0E27361E3D3A3D92
:10031000000404003A26BB26DA26F53522362636B6
:100320004F0E27361E3D3A3D000407003A26BB26F5
:10033000DA260436223626364F0E27361E3D3A3D43
:10034000001004003A26BB26DA261336223626365B
:100350004F0E27361E3D3A3D001007005930183128
:100360003931385446544B544C544E54530E540E59
:100370000000000196271E28C229684C6B4C784C5F
:10038000794C2A4F530E540E000000001A589D5805
:10039000CF5847594A594D594E594F59325A395ADF
:1003A000002008001A589D58CF584C0E4D0E4E0E86
:1003B0004F0E500E530E540E000000011A589D5857
:1003C000CF58005B3B5B3E5B3F5B405BF95A885A12
:1003D000002008001A589D58CF580A5D355D385DD9
:1003E000395D3A5DDC5EEA5E00200800004E4F4E4B
:1003F00045000000000000000000000000000000B8
:1004000000000000000000000000000000014D4658
:100410005F554C5452414C4947485400000000007D
:100420000000000000000000000000000000024D7D
:10043000465F554C5452414C494748545F455631EC
:100440005F383042000000000000000000000003A0
:100450004D465F554C5452414C494748545F4556B0
:10046000315F31363442000000000000000000001F
:10047000044D465F434C41535349435F314B0000A9
:10048000000000000000000000000000000000006C
:1004900000054D465F434C41535349435F314B5F29
:1004A00037420000000000000000000000000000D3
:1004B0000000064D465F434C41535349435F344B64
:1004C000000000000000000000000000000000002C
:1004D000000000074D465F434C41535349435F348E
:1004E0004B5F3742000000000000000000000000E9
:1004F000000000000849534F3134343433415F5316
:100500004E494646000000000000000000000000C8
:1005100000000000000949534F3134343433415F47
:100520005245414445520000000000000000000018
:100530000000000000000A564943494E4954590042
:1005400000000000000000000000000000000000AB
:10055000000000000000000B49534F31353639339D
:100560005F534E49464600000000000000000000B6
:1005700000000000000000000C534C3253323030B9
:100580003200000000000000000000000000000039
:100590000000000000000000000D5449544147498C
:1005A000545354414E4441524400000000000000A6
:1005B0000000000000000000000001000001000138
:1005C0000100000101000100000100010100010023
:1005D0000001010000010001010000010100010013
:1005E0000001010000010001010001000001000103
:1005F00001000001010001000001000101000100F3
:1006000000010100000100010100010000010001E2
:1006100001000001010001000001010000010001D2
:1006200001000001010001000001000101000100C2
:1006300000010100000100010100000101000100B2
:1006400000010100000100010100010000010001A2
:100650000100000101000100000101000001000192
:100660000100000101000100000100010100010082
:100670000001010000010001010001000001000172
:100680000100000101000100000100010100010062
:100690000001010000010001010000010100010052
:1006A0000001010000010001010001000001000142
:1006B00001000001010001000001008040C020A0F5
:1006C00060E0109050D030B070F0088848C828A87A
:1006D00068E8189858D838B878F8048444C424A432
:1006E00064E4149454D434B474F40C8C4CCC2CAC1A
:1006F0006CEC1C9C5CDC3CBC7CFC028242C222A2F6
:1007000062E2129252D232B272F20A8A4ACA2AAA19
:100710006AEA1A9A5ADA3ABA7AFA068646C626A6D1
:1007200066E6169656D636B676F60E8E4ECE2EAEB9
:100730006EEE1E9E5EDE3EBE7EFE018141C121A1A7
:1007400061E1119151D131B171F1098949C929A9E9
:1007500069E9199959D939B979F9058545C525A5A1
:1007600065E5159555D535B575F50D8D4DCD2DAD89
:100770006DED1D9D5DDD3DBD7DFD038343C323A365
:1007800063E3139353D333B373F30B8B4BCB2BAB89
:100790006BEB1B9B5BDB3BBB7BFB078747C727A741
:1007A00067E7179757D737B777F70F8F4FCF2FAF29
:1007B0006FEF1F9F5FDF3FBF7FFF004E4F4E450033
:1007C0000000000000000000000000000000000029
:1007D0000000000000000000000000015549445FD7
:1007E00052414E444F4D0000000000000000000048
:1007F0000000000000000000000000000255494415
:100800005F4C4546545F494E4352454D454E54005A
:100810000000000000000000000000000003554937
:10082000445F52494748545F494E4352454D454EF7
:10083000540000000000000000000000000004550B
:1008400049445F4C4546545F44454352454D454EEF
:10085000540000000000000000000000000000053F
:100860005549445F52494748545F44454352454DBA
:10087000454E540000000000000000000000000091
:10088000064359434C455F53455454494E47530022
:100890000000000000000000000000000000000058
:1008A000000753544F52455F4D454D000000000076
:1008B0000000000000000000000000000000000038
:1008C000000008524543414C4C5F4D454D0000002F
:1008D0000000000000000000000000000000000018
:1008E00000000009544F47474C455F4649454C447A
:1008F00000000000000000000000000000000000F8
:10090000000000000A53544F52455F4C4F4700000F
:1009100000000000000000000000000000000000D7
:100920000000000000004F464600000000000000EC
:1009300000000000000000000000000000000000B7
:10094000000000000000014D454D4F5259000000CD
:100950000000000000000000000000000000000097
:1009600000000000000000024C4956450000000055
:100970000000000000000000000000000000000077
:100980000000000000000000004E4F4E4500000037
:100990000000000000000000000000000000000057
:1009A00000000000000000000001504F5745524574
:1009B00044000000000000000000000000000000F3
:1009C00000000000000000000000025445524D49A4
:1009D0004E414C5F434F4E4E0000000000000000AF
:1009E0000000000000000000000000035445524DCC
:1009F000494E414C5F52585458000000000000001E
:100A000000000000000000000000000004534554F6
:100A100054494E475F4348414E474500000000009F
:100A200000000000000000000000000000054D452F
:100A30004D4F52595F53544F52454400000000003F
:100A40000000000000000000000000000000064D53
:100A5000454D4F52595F4348414E474544000000C1
:100A6000000000000000000000000000000000087E
:100A7000434F4445435F525800000000000000000F
:100A80000000000000000000000000000000000066
:100A900009434F4445435F545800000000000000E4
:100AA0000000000000000000000000000000000046
:100AB00000074649454C445F44455445435445442A
:100AC0000000000000000000000000000000000026
:100AD00000000A4C4F474D454D5F46554C4C0000B9
:100AE0000000000000000000000000000000000006
:100AF00000000025632C25630025356400416E79D4
:100B000020696E74656765722066726F6D20302093
:100B1000746F2025752E205265666572656E63655B
:100B200020766F6C746167652077696C6C206265F4
:100B30002028564343202A205448524553484F4CBE
:100B400044202F203430393529206D562E0025754C
:100B5000002535640030203D206E6F2074696D657E
:100B60006F75740D0A312D363030203D2031303014
:100B7000206D73202D203630303030206D7320747E
:100B8000696D656F7574002575206D730025342EB1
:100B9000345800253575206D56002575202866725D
:100BA0006F6D207768696368202575206E6F6E2DE4
:100BB000766F6C6174696C65290025750025750078
:100BC00025632C25630052414E444F4D004E4F206B
:100BD0005549442E004368616D656C656F6E4D69C3
:100BE0006E692052657647202553207573696E67BC
:100BF000204C55464120255320636F6D70696C650C
:100C0000642077697468204156522D47434320255C
:100C1000532E204261736564206F6E2074686520D6
:100C20006F70656E2D736F75726365204E4643203D
:100C3000746F6F6C204368616D656C656F6E4D6994
:100C40006E692E2068747470733A2F2F6769746808
:100C500075622E636F6D2F656D7365632F436861D9
:100C60006D656C656F6E4D696E6920636F6D6D6942
:100C70007420255300313831313330003135313172
:100C8000313500342E392E3200656337383434382C
:100C9000000D0A000D0A000D0A000D0A000D0A00E1
:100CA0000D0A00643130303A4F4B00000000000064
:100CB0000000000000000000000000000000000034
:100CC00000000000653130313A4F4B2057495448FD
:100CD00020544558540000000000000000000000AF
:100CE00000000000006E3131303A57414954494EFE
:100CF0004720464F5220584D4F44454D00000000BC
:100D0000000000000000C83230303A554E4B4E4FC4
:100D1000574E20434F4D4D414E440000000000000F
:100D200000000000000000C93230313A494E5641FF
:100D30004C494420434F4D4D414E4420555341476B
:100D40004500000000000000CA3230323A494E56D9
:100D5000414C494420504152414D455445520000B8
:100D6000000000000000000000783132303A4641B7
:100D70004C5345000000000000000000000000008F
:100D800000000000000000000000793132313A54C8
:100D90005255450000000000000000000000000067
:100DA0000000000000000000000000CB3230333AA9
:100DB00054494D454F55540000000000000000000C
:100DC00000000000000000000000000056455253E3
:100DD000494F4E000000000000000000000000002D
:100DE00000005C1A434F4E464947000000000000D7
:100DF0000000000000000000841A7E1A55494400DB
:100E000000000000000000000000000000000000E2
:100E1000E51AA61A524541444F4E4C5900000000B5
:100E20000000000000000000431B371B55504C4FD2
:100E3000414400000000000000000000701B0000A2
:100E400000000000444F574E4C4F4144000000004A
:100E500000000000751B00000000000052455345D3
:100E60005400000000000000000000007A1B000099
:100E7000000000005550475241444500000000006A
:100E800000000000851B0000000000004D454D5390
:100E9000495A45000000000000000000000000006A
:100EA0000000901B55494453495A4500000000007A
:100EB00000000000000000000000A81B5242555432
:100EC000544F4E0000000000000000000000000031
:100ED000C51BBE1B52425554544F4E5F4C4F4E479C
:100EE0000000000000000000E11BDA1B4C425554DA
:100EF000544F4E0000000000000000000000000001
:100F0000FD1BF61B4C425554544F4E5F4C4F4E4701
:100F10000000000000000000191C121C4C45444752
:100F20005245454E00000000000000000000000097
:100F3000351C2E1C4C454452454400000000000066
:100F40000000000000000000511C4A1C4C4F474D9F
:100F50004F444500000000000000000000000000B9
:100F60006B1C661C4C4F474D454D000000000000B7
:100F700000000000000000000000801C4C4F4744AF
:100F80004F574E4C4F41440000000000A51C00008C
:100F9000000000004C4F4753544F524500000000E2
:100FA00000000000AA1C0000000000004C4F474356
:100FB0004C4541520000000000000000AD1C000044
:100FC0000000000053455454494E47000000000003
:100FD0000000000000000000B51CB01C434C45415F
:100FE000520000000000000000000000BD1C0000D6
:100FF0000000000053544F52450000000000000064
:1010000000000000C11C00000000000052454341E8
:101010004C4C00000000000000000000C51C000057
:10102000000000004348415247494E47000000007D
:1010300000000000000000000000C91C48454C50A2
:10104000000000000000000000000000D11C0000B3
:10105000000000005253534900000000000000004F
:10106000000000000000000000000D1D5359535403
:1010700049434B0000000000000000000000000099
:101080000000401D53454E445F5241570000000090
:10109000000000000000E61D0000000053454E4423
:1010A00000000000000000000000000000005C1DC7
:1010B000000000004745545549440000000000006E
:1010C00000000000A21E00000000000044554D502A
:1010D0005F4D46550000000000000000851E000026
:1010E000000000004944454E5449465900000000A4
:1010F00000000000BF1E00000000000054494D45E4
:101100004F555400000000000000000000000000E7
:10111000FC1EDC1E5448524553484F4C440000000E
:101120000000000000000000691F4F1F4155544F90
:1011300043414C494252415445000000F81F000011
:10114000000000004649454C44000000000000003B
:101150000000000000000000BE1FE81F00000000AB
:10116000000000000000000000000000000000007F
:101170000000000053414B3A09005549443A090028
:10118000415451413A0900546865726520697320E1
:101190006174206C65617374206F6E65206D6F7271
:1011A00065206361726420747970652063616E6488
:1011B00069646174652C2062757420746865726559
:1011C00020776173206E6F7420656E6F756768207D
:1011D0007465726D696E616C2062756666657220F9
:1011E00073706163652E0D0A000D0A000400010989
:1011F00001000000000000000000000000000000EE
:101200000000004E585000000000000000000000E8
:101210000000004D4946415245204D696E6900006D
:1012200000000000000000000000000000000000BE
:1012300000000000000000000000000000000000AE
:10124000000000000000000000000000000000009E
:101250000000000400010801000000000000000080
:10126000000000000000000000004E585000000088
:10127000000000000000000000004D4946415245BA
:1012800020436C617373696320316B0000000000C0
:10129000000000000000000000000000000000004E
:1012A000000000000000000000000000000000003E
:1012B0000000000000000000000002000118010012
:1012C000000000000000000000000000000000001E
:1012D000004E585000000000000000000000000018
:1012E000004D494641524520436C61737369632048
:1012F000346B00000000000000000000000000004F
:1013000000000000000000000000000000000000DD
:1013100000000000000000000000000000000000CD
:101320000044000100010000000000000000000077
:1013300000000000000000004E58500000000000B7
:1013400000000000000000004D4946415245205574
:101350006C7472616C6967687400000000000000C2
:10136000000000000000000000000000000000007D
:10137000000000000000000000000000000000006D
:101380000000000000000000440301200175778187
:101390000280000000000000000000000005004E78
:1013A0005850000000000000000000000000004D48
:1013B0004946415245204445534669726500000044
:1013C000000000000000000000000000000000001D
:1013D000000000000000000000000000000000000D
:1013E00000000000000000000000000000000044B9
:1013F00003012001757781028000000000000000D9
:101400000000000005004E585000000000000000E1
:101410000000000000004D4946415245204445531C
:10142000466972652045563100000000000000004A
:1014300000000000000000000000000000000000AC
:10144000000000000000000000000000000000009C
:1014500000000000000004030128013877B14A436E
:101460004F50333100000000000000090149424D97
:10147000000000000000000000000000004A434F90
:1014800050333100000000000000000000000000A8
:10149000000000000000000000000000000000004C
:1014A000000000000000000000000000000000003C
:1014B00000000000000000000000000000480001E3
:1014C00020017877B1024A434F5076323431000020
:1014D00000000C0149424D00000000000000000027
:1014E000000000004A434F5033312076322E342E14
:1014F00031000000000000000000000000000000BB
:1015000000000000000000000000000000000000DB
:1015100000000000000000000000000000000000CB
:101520000000000048000120013833B14A434F5009
:101530003431563232000000000C0149424D0000A7
:1015400000000000000000000000004A434F50343B
:10155000312076322E320000000000000000000032
:10156000000000000000000000000000000000007B
:10157000000000000000000000000000000000006B
:10158000000000000000000000000004000128012D
:101590003833B14A434F50343156323331000000B2
:1015A0000D0149424D000000000000000000000055
:1015B00000004A434F5034312076322E332E310012
:1015C000000000000000000000000000000000001B
:1015D000000000000000000000000000000000000B
:1015E00000000000000000000000000000000000FB
:1015F000000004000188010000000000000000005D
:10160000000000000000000000496E66696E656F12
:101610006E00000000000000004D49464152452088
:10162000436C617373696320316B0000000000003C
:1016300000000000000000000000000000000000AA
:10164000000000000000000000000000000000009A
:1016500000000000000000000002000198010000EE
:10166000000000000000000000000000000000007A
:1016700047656D706C75730000000000000000008D
:101680004D50434F530000000000000000000000D8
:10169000000000000000000000000000000000004A
:1016A000000000000000000000000000000000003A
:1016B000000000000000000000000000000000002A
:1016C000000C01000000000000000000000000000D
:1016D00000000000000000496E6E6F766973696F4C
:1016E0006E2052265400004A6577656C00000000A9
:1016F00000000000000000000000000000000000EA
:1017000000000000000000000000000000000000D9
:1017100000000000000000000000000000000000C9
:10172000000000000000000200013801000000007D
:1017300000000000000000000000000000004E6FEC
:101740006B696100000000000000000000004D49CE
:101750004641524520436C617373696320346B20AA
:101760002D20656D756C61746564202836323132C8
:1017700020436C617373696329000000000000005E
:101780000000000000000000000000000000080051
:10179000013801000000000000000000000000000F
:1017A00000000000004E6F6B696100000000000047
:1017B00000000000004D494641524520436C6173D2
:1017C00073696320346B202D20656D756C617465C1
:1017D00064202836313331204E4643290000000072
:1017E00000000000000000000000000000000000F9
:1017F00000000000006364696E6F70737578585B59
:10180000000011241FBECFEFCDBFDFE3DEBF00E03D
:101810000CBF18BE19BE1ABE1BBE14E2A0E0B0E297
:10182000ECE9FCED00E00BBF02C007900D92AC3676
:10183000B107D9F71BBE27E3ACE6B4E201C01D92A5
:10184000AA38B207E1F77ED00C944C6E6FC13BB75B
:101850008BBFFB01879196913BBF08953BB78BBF30
:10186000CB0142E20D94F00F3BB70B0143E20D9424
:10187000F00F3BB78BBFCB0145E20D94F00F3BB7A8
:1018800046E208C02091CF0127FDFCCF22272093FC
:10189000CA0108954093CA0128ED31E02093340035
:1018A0003093CB016091C4017091C5018091C60154
:1018B00099270895FC014093CA01849108950F92DD
:1018C00000240F932F933F934F935F930FB70F9382
:1018D000EF93FF93EAB1FBB15191442735B124B1A5
:1018E000569578F400928C080092000806E10A955B
:1018F000F1F700C001E00093000803E000938C08BA
:1019000004C00AE10A95F1F700002150304019F4B3
:101910000E9466280CC04F5F477011F4519102C0BD
:1019200000C000C00AE00A95F1F700C0D9CFFF91CE
:10193000EF910F910FBF5F914F913F912F910F91B9
:101940000F90189515D10E9495170E941418C9D2AE
:101950001092520684E08093420682E680938601CC
:10196000C1E0C0932606C093210686E0809322063C
:10197000C093310612E01093320610922A0610929C
:101980002B068FE08093290689E5809380019AE5F4
:10199000909381018093820180E48093410680933B
:1019A00046069091B200907F9093B2009091B20061
:1019B00092609093B20090E3909341069093460614
:1019C00080935006C09346061093450603E00093AB
:1019D000410683E18093010821E030E0209326084E
:1019E00030932708209328083093290810928C08F8
:1019F000809380081092230310922103D8E0D093A3
:101A0000220381E180932003E0919B2FF0919C2F92
:101A10008285938580933803909339038CE3809378
:101A20008203D093800380938303D09381036FD18B
:101A30000E94BF19C0D13FD7C0930002109201028B
:101A40001093020200930402C0932002D09321025B
:101A50000E94201619D1D2E0C1E18091030481FFD8
:101A600025C08091010480FDFCCFD09303040E9427
:101A70001818B6D10E94F21926D70E949017E0914B
:101A80008C2FF0918D2F19950E94FB220E945C19DA
:101A9000E0919B2FF0919C2F8781813011F4C093AE
:101AA000752C8681813011F4C093742C0E94C31967
:101AB000C8D7E0918A2FF0918B2F1995E091842F50
:101AC000F091852F1995C9CF292F33272230310561
:101AD00059F02330310569F021303105F9F482E104
:101AE00090E02AE832E01EC08EE390E02CE432E081
:101AF00019C099278130910541F08230910541F05C
:101B0000892B61F4E8E4F2E005C0ECE1F2E002C008
:101B1000ECEFF1E0849190E09F0104C080E090E060
:101B200020E030E0FA012083318308951F920F9264
:101B30000FB60F92112408B60F9218BEFFCF1F9256
:101B40000F920FB60F92112408B60F9218BE8F9302
:101B50009F938EB19FB180589F4F8EB99FB99F912F
:101B60008F910F9008BE0F900FBE0F901F90189589
:101B70008091780083FF0AC088E08093780088ED28
:101B800084BF81E0809380000D94FE008BEC8093F5
:101B900052008091500088608093500080915100E5
:101BA00083FFFCCF82EC80935500809150008061D0
:101BB000809350008091510084FFFCCF88ED84BF5A
:101BC00084E0809340001EB81FB881E080934300FA
:101BD0002FE730E020930A0430930B0420930C0489
:101BE00030930D04809300048093020480E8809376
:101BF0000001089588ED84BF81E080937900089505
:101C000088ED84BF8BE1809380000895809150001F
:101C10008260809350008091510081FFFCCF82E070
:101C20008093CA01EDE1F0E0E491E0936200ECE121
:101C3000F0E0E491E09363001092CA0180E88093A1
:101C400065008BEB8093660080915600897F8093BE
:101C50005600809156008460809356008091600009
:101C60008160809360000895E0E4F0E084818E7FDD
:101C70008483E0E6F0E080818E7F8083E0E5F0E021
:101C800080818D7F8083089587E08093A20078947F
:101C9000089508950895089508950895089508955C
:101CA00080E090E00895089508950F931F93CF93D7
:101CB000DF931F92CDB7DEB700E81FE2D80112967E
:101CC000ED91FC911397898319950E943323E0913C
:101CD0009B2FF0919C2F89818583B8E18B9FB00168
:101CE000112464567D4F48E150E0C8010E942467EA
:101CF000D801ED91FC911995D8011696ED91FC91C2
:101D000017970F90DF91CF911F910F91199448E190
:101D100050E06CE972E080E89FE20E942467E09165
:101D20009B2FF0919C2F8581C0CF0F931F93E09143
:101D30009B2FF0919C2F8B019C0145816EE08CEED6
:101D400093E00E94F9181F910F910895FF920F934D
:101D50001F93CF93DF931F92CDB7DEB78C019E0107
:101D60002F5F3F4FAC016EE08CEE93E00E941119A3
:101D7000F82E882389F0898198DFF80140E081916D
:101D8000882319F04F5F4F31D1F7E091982FF091F0
:101D9000992FB80181E119958F2D0F90DF91CF9187
:101DA0001F910F91FF9008959B01AC016EE08CEEA6
:101DB00093E00C94381908950C94166708951F93B6
:101DC000CF93DF93C82FD92F162F180F1C1721F090
:101DD0000E9416678993FACFDF91CF911F910895E2
:101DE0000E9416670E9416670E9416670C94166779
:101DF000EF92FF920F931F93CF93DF937C0161507B
:101E00007109FA018A01020F131FDC0140E050E062
:101E1000E017F107F1F062307105D8F09191392F98
:101E200032953F703A3010F4305D01C0395C3C931C
:101E30009F709A3010F4905D01C0995C9701240F57
:101E4000351FE90199831296625071094E5F5F4F09
:101E5000DFCF1C92CA01DF91CF911F910F91FF90AC
:101E6000EF900895CF93DF93EC01DA01E0E0F0E02A
:101E70004C91442391F111969C911197992339F13A
:101E8000E617F70721F180ED840F8A3020F08FEB01
:101E9000840F8630D0F480ED890F8A3020F02FEB4C
:101EA000290F263090F4242F30E0413410F02753CE
:101EB00031092295207F913410F4982F01C0975357
:101EC000292B299331961296D3CF80E004C0119626
:101ED0008C91811102C090E001C0CF01DF91CF91C0
:101EE0000895E0E6F6E080E1858382E0868388E07D
:101EF00085838AE18183E0EAF9E01682178280EC2B
:101F0000858388E18483E0E0F1E0128A8BE6838BAD
:101F1000148A158A20EA208F99E0918F128E148EF0
:101F2000158E168E84E0808B12A23CE633A314A299
:101F300015A210A611A612A624A795A716A680A3DF
:101F400008954115510509F449C020E12093660622
:101F500023E02093A0092091A10927FFFCCF209125
:101F6000A0097093A0092091A10927FFFCCF20911F
:101F7000A0096093A0092091A10927FFFCCF20911F
:101F8000A00921E02093120180931C0190931D0170
:101F90004093140150931501109222018CE694E2B3
:101FA00080932801909329014093240150932501A7
:101FB00080911001806880931001809120018068D9
:101FC000809320018091100187FDFCCF80E38093F6
:101FD00011018093210180E18093650608954115E8
:101FE000510509F469C020E12093660626E020939C
:101FF000A0092091A10927FFFCCF2091A00920E191
:1020000020936506000000002093660622E02093DE
:10201000A0092091A10927FFFCCF2091A00970936E
:10202000A0092091A10927FFFCCF2091A00960936E
:10203000A0092091A10927FFFCCF2091A0091092AF
:1020400012012CE634E220931C0130931D014093D1
:1020500014015093150120E120932201809328015F
:102060009093290140932401509325018091100100
:102070008068809310018091200180688093200106
:102080008091100187FDFCCF80E380931101809344
:10209000210180E180936506E0919B2FF0919C2FB8
:1020A0008781863019F481E18093752C8681863092
:1020B00019F481E18093742C0895CF92DF92EF920E
:1020C000FF92CF93DF93C0909A2FD12CE12CF12C6B
:1020D0008DE0CC0CDD1CEE1CFF1C8A95D1F7C114E1
:1020E000D10481E0E806F10408F04EC080E180935D
:1020F000660686E08093A0098091A10987FFFCCF46
:102100008091A00980E18093650600000000809323
:10211000660682E08093A0098091A10987FFFCCF29
:102120008091A0091092A0098091A10987FFFCCF9E
:102130008091A0091092A0098091A10987FFFCCF8E
:102140008FEFE81AF80A8091A009C0E0D0E1C7013A
:10215000B6017DDB8093A0098091A10987FFFCCFA8
:102160008091A0099093A0098091A10987FFFCCFDD
:102170008091A00982E0C80ED11CE11CF11C2197BE
:1021800031F780E1809365068091010480FDFCCFEA
:1021900082E080930304DF91CF91FF90EF90DF9076
:1021A000CF900895CF92DF92EF92FF92CF93DF937B
:1021B000C0909A2FD12CE12CF12C8DE0CC0CDD1CA1
:1021C000EE1CFF1C8A95D1F7C114D10481E0E8060A
:1021D000F10438F0DF91CF91FF90EF90DF90CF9036
:1021E0006CCF8FEFE81AF80AC1E2D0E0219791F3A3
:1021F00049DBC701B60132DB45DB8FEFD81AE80AAD
:10220000F80AF4CFCF92DF92EF92FF920F931F93D1
:10221000CF93DF93C0909A2FD12CE12CF12C8DE03D
:10222000CC0CDD1CEE1CFF1C8A95D1F7C114D10427
:1022300081E0E806F10408F04FC080E18093660673
:1022400083E08093A0098091A10987FFFCCF809152
:10225000A0091092A0098091A10987FFFCCF80916D
:10226000A0091092A0098091A10987FFFCCF8FEFF0
:10227000E81AF80A8091A009C1E2D0E0219749F15B
:1022800001DBFDDAFFDA00E010E01092A009809196
:10229000A10987FFFCCF6091A00970E01092A0090E
:1022A0008091A10987FFFCCF8091A009782BC801FC
:1022B000DBDAE8DA0E5F1F4F011581E0180729F716
:1022C000C701B601D6DADEDA8FEFD81AE80AF80AC3
:1022D000D5CF80E180936506E0919B2FF0919C2FF4
:1022E0008781863019F490E19093752C9681963011
:1022F00049F420E12093742C853059F483E18093D4
:10230000752C02C08530D1F3953019F483E18093A8
:10231000742C8091010480FDFCCF82E08093030443
:10232000DF91CF911F910F91FF90EF90DF90CF90B1
:102330000895CF92DF92EF92FF920F931F93411572
:10234000E0E25E076105710508F06BC06901E12CF0
:10235000F12C00E010E220E030E0041B150B260B0E
:10236000370BC016D106E206F30610F4970186017A
:1023700020E12093660626E02093A0092091A10980
:1023800027FFFCCF2091A00920E1209365060000E3
:1023900000002093660622E02093A0092091A10965
:1023A00027FFFCCF2091A0095093A0092091A109FB
:1023B00027FFFCCF2091A0094093A0092091A109FB
:1023C00027FFFCCF2091A009109212012CE634E2E5
:1023D00020931C0130931D010093140110931501EB
:1023E00020E12093220180932801909329010093FA
:1023F00024011093250180911001806880931001C1
:10240000809120018068809320018091100187FDD8
:10241000FCCF80E3809311018093210180E18093C0
:10242000650681E01F910F91FF90EF90DF90CF90B4
:102430000895CF92DF92EF92FF920F931F93411571
:10244000E0E25E076105710508F05DC06901E12CFD
:10245000F12C00E010E220E030E0041B150B260B0D
:10246000370BC016D106E206F30610F49701860179
:1024700020E12093660623E02093A0092091A10982
:1024800027FFFCCF2091A0095093A0092091A1091A
:1024900027FFFCCF2091A0094093A0092091A1091A
:1024A00027FFFCCF2091A00921E020931201809307
:1024B0001C0190931D0100931401109315011092BB
:1024C00022018CE694E280932801909329010093E5
:1024D00024011093250180911001806880931001E0
:1024E000809120018068809320018091100187FDF8
:1024F000FCCF80E3809311018093210180E18093E0
:10250000650681E001C080E01F910F91FF90EF9080
:10251000DF90CF9008958091CF0187FDFCCF089583
:10252000FADF8091CF0181FF0BC086E38093CA015F
:10253000EBECF1E021E030E088ED90E084BF208317
:102540000895EF92FF920F931F93CF93DF931F9203
:102550001F92CDB7DEB77C018A011092C201698358
:102560007A83D9DF6981A62F7A81B72FC701800FBF
:10257000911F26E048ED50E061E070E0EBECF1E007
:10258000E816F90689F0E092C0013F2D3F713093C3
:10259000C1012093CA0144BF60833091C4013D93BF
:1025A0003FEFE31AF30AECCFC8010F900F90DF91D1
:1025B000CF911F910F91FF90EF9008952F923F922E
:1025C0004F925F926F927F928F929F92AF92BF9243
:1025D000CF92DF92EF92FF920F931F93CF93DF93EF
:1025E00000D0CDB7DEB76A01282F2F711C01221A47
:1025F000310829836A837B8393DF8DDF83E38093B4
:10260000CA011092C1011092C2016A81E62E7B813B
:10261000F72E860185E3582E98ED892E912C66249D
:102620006394712C3BECA32EBB24B39443E3442E60
:1026300029810115110509F12093C001F70181914C
:102640007F018093C4010150110919F02F5F2032DE
:1026500081F72092C001832D8F718093C101509228
:10266000CA01C401F50184BF608290E2290E311CC9
:1026700052DF4092CA0120E0DCCFC6012396CDBFD5
:10268000DEBFDF91CF911F910F91FF90EF90DF9010
:10269000CF90BF90AF909F908F907F906F905F9002
:1026A0004F903F902F9008951F93CF93DF93CDB716
:1026B000DEB7A097CDBFDEBF853009F4AEC078F499
:1026C000823081F128F4813009F0EEC010E01BC0A7
:1026D000833009F453C0843009F475C0E5C08830F4
:1026E00009F4D3C040F4863009F4CDC0873009F036
:1026F000DBC088DDD9C0893009F4C9C08A3009F04F
:10270000D3C080D3D1C08091962F181708F0A8C0ED
:1027100053DBE1E0F0E0EC0FFD1FE10FF11D8083E2
:102720001F5FF1CF11E08091962F873009F010E004
:10273000E091902FF091912FCE0101961995409143
:10274000962F31E0141708F08BC03323A9F0812FA6
:1027500090E0E1E0F0E0EC0FFD1FE80FF91F2081B1
:1027600031E02F3F09F030E0E1E0F0E0EC0FFD1F39
:10277000E80FF91F2F5F20831F5FE4CFE091902FB8
:10278000F091912FCE01019619958091962F41E0FD
:10279000815008F465C04423D9F3282F30E0E1E0EC
:1027A000F0E0EC0FFD1FE20FF31F908141E09F3F2F
:1027B00009F040E0E1E0F0E0EC0FFD1FE20FF31F55
:1027C0009F5F9083E5CF11E08091962F873009F0CD
:1027D00010E0E091902FF091912FCE010196199584
:1027E0004091962F31E01417D8F53323A1F0812FB3
:1027F00090E0E1E0F0E0EC0FFD1FE80FF91F208111
:1028000031E0211130E0E1E0F0E0EC0FFD1FE80FD6
:10281000F91F215020831F5FE6CFE091902FF091A8
:10282000912FCE01019619958091962F41E081500C
:10283000B8F04423E1F3282F30E0E1E0F0E0EC0FC2
:10284000FD1FE20FF31F908141E0911140E0E1E0B4
:10285000F0E0EC0FFD1FE20FF31F91509083E7CFE4
:10286000E091922FF091932FCE0101961995E0916E
:10287000982FF091992F4091962FBE016F5F7F4F57
:1028800083E1199511C09AD30FC017DC0DC0809158
:102890000008813021F480918C08833019F00E9467
:1028A000BF2302C00E94E423A096CDBFDEBFDF910C
:1028B000CF911F910895E0E0F6E080E6828388E101
:1028C000868B858B0895CF93C0910806C095C6FF6F
:1028D00012C080916E248A3050F08A30E1F4E09189
:1028E0009B2FF0919C2F8181DFDE80916E248F5F82
:1028F00080936E2410C08C2F807669F480916E24B2
:1029000081508A3030F4E0919B2FF0919C2F808190
:10291000CBDE10926E24C5FF12C080916D248A30E8
:1029200050F08A30D9F4E0919B2FF0919C2F838155
:10293000BBDE80916D248F5F80936D240FC0C076C5
:1029400069F480916D2481508A3030F4E0919B2F9E
:10295000F0919C2F8281A8DE10926D24CF91089572
:102960009B01AC016BE08AEB97E082C420E030E091
:1029700090E0F901E80FF91FE656F04D6383245FFC
:102980003F4F20363105A9F708950F931F939B0100
:10299000E0919B2FF0919C2FE80FF11D8A0140815F
:1029A0006BE08AEB97E025D41F910F9108950F9368
:1029B0001F93CF93DF931F92CDB7DEB7082FAB01E4
:1029C0009E012F5F3F4F6BE08AEB97E02AD4182FD0
:1029D000882319F06981802FC9DF812F0F90DF9143
:1029E000CF911F910F9108950895EF92FF920F9349
:1029F0001F93CF937B01C42F2EB13FB100910804E8
:102A000010910904022B132B682F83E090E20E949F
:102A10002A656C2F83E090E20E942A65612F83E093
:102A200090E20E942A65602F83E090E20E942A656E
:102A30006C2F70E0C701CF911F910F91FF90EF9025
:102A400098C408953F924F925F926F927F928F92B7
:102A50009F92AF92BF92CF92DF92EF92FF920F932D
:102A60001F93CF93DF937C01E901C0900020D090A9
:102A70000120960122503843C901A0E0B0E0481778
:102A800059076A077B0708F05CC0E2E0CE1AE0E471
:102A9000DE0A2A013B014C0E5D1E611C711C4816AA
:102AA00059066A067B0648F0241B350B8E01021B73
:102AB000130BE9013324339403C000E010E0312C00
:102AC0004601A12CB12C481559056A057B0510F566
:102AD000CA018E5F9F4B2A013B014C0E5D1E611C9B
:102AE000711C481459046A047B0428F4AE01BC012B
:102AF000C70127DA18C0C41AD50AA601BC01C7014C
:102B000020DAAE014C195D0964E774E2C7018C0D4F
:102B10009D1D07C04C195D09BA016C587B4DAE0173
:102B2000C7010E945267311002C081E00BC0015002
:102B30001109D8F3F801EC0FFD1FEE0DFF1D1082F7
:102B4000F6CF80E0DF91CF911F910F91FF90EF9032
:102B5000DF90CF90BF90AF909F908F907F906F90BD
:102B60005F904F903F900895209170243091712490
:102B700080E098E0821B930BE4E7F4E29F01245786
:102B800034422817390710F41192F8CF84E794E201
:102B9000809372249093732480E098E08093702453
:102BA0009093712482E090E4809300209093012020
:102BB00042E050E060E070E480E090E210DAE09102
:102BC0009B2FF0919C2F87818A3019F480E18093AC
:102BD000752C86818A3019F480E18093742C0895D5
:102BE0008091702490917124905820910020309110
:102BF0000120821B930B089520E030E0F901E65696
:102C0000F04D8783245F3F4F20363105B9F781307F
:102C100049F018F0823059F0089510926F2484EF33
:102C200094E109C080936F248BE796E104C0109271
:102C30006F2485EF94E18093982F9093992F0895B6
:102C40000F931F93CF93DF931F92CDB7DEB7E09121
:102C50009B2FF0919C2F8481CFDF84E794E28093B7
:102C600072249093732400E018E000937024109372
:102C7000712441E050E0BE016F5F7F4F80E090E043
:102C800060DCE0917224F0917324DF01C8011D9291
:102C90000197E9F78981882341F042E050E060E044
:102CA00070E480E090E24DD917C082E090E4809318
:102CB00000209093012042E050E060E070E480E06A
:102CC00090E28DD981E0898341E050E0BE016F5FE1
:102CD0007F4F80E090E072DCE091982FF091992F87
:102CE00040E060E070E08FEF19950F90DF91CF9199
:102CF0001F910F9108950F931F93CF93DF93AEB160
:102D0000BFB1C0910804D091090420917024309182
:102D10007124E42FF0E08F010C5F1F4F2017310763
:102D200058F1CA2BDB2B245031092E1B3F0B20936B
:102D3000702430937124A0917224B09173248C93E9
:102D400011964C9311971296DC931297CD0104962D
:102D500080937224909373241396CC93DB01EC013F
:102D6000415018F02D912993FBCFE80FF91FE09304
:102D70007224F093732412C080E03EDFE0919B2F19
:102D8000F0919C2F87818A3019F481E18093752C12
:102D900086818A3019F481E18093742CDF91CF9180
:102DA0001F910F9108951F93CF93DF931F92CDB77B
:102DB000DEB79E012F5F3F4FAC0163E085E299E0F3
:102DC00030D2182F882311F0898116DF812F0F90C0
:102DD000DF91CF911F9108950F931F93E0919B2F47
:102DE000F0919C2F8B019C01448163E085E299E086
:102DF00000D21F910F9108959B01AC0163E085E221
:102E000099E036C2EF92FF920F931F93CF93DF9317
:102E10008091702490917124811528E0920708F028
:102E200078C00091002010910120C0E0D0E8C01BC4
:102E3000D10BE12C28E0F22EA701481B590BC41737
:102E4000D50760F1B80184E794E2C9D820917024D5
:102E5000309171248091002090910120985F821B15
:102E6000930B8093002090930120E21AF30AE4E789
:102E7000F4E2CF01845794428E159F0510F411920D
:102E8000F8CF84E794E2809372249093732480E0D7
:102E900098E080937024909371242EC02097C9F1FC
:102EA000AE01B80184E794E29AD8A8015857BE0150
:102EB0006C587B4D84E794E20E945B67809172249A
:102EC000909173248C1B9D0B809372249093732498
:102ED00080917024909171248C0F9D1F8093702499
:102EE000909371248091002090910120C80FD91FE8
:102EF000C0930020D093012042E050E060E070E4F5
:102F000080E090E2DF91CF911F910F91FF90EF90C1
:102F100066C8DF91CF911F910F91FF90EF900895B8
:102F200080916F2481116ECF089543E650E06AE9E5
:102F30007FE281E090E005CB43E650E06AE97FE282
:102F400081E090E03BCBCF93DF93CFEFC80FC83049
:102F500078F5D82F0E94332355D9C0939A2F8CE04F
:102F6000C89F90011124C9018356904D80939B2FD7
:102F700090939C2FF901E656F04D80850E94550EE6
:102F8000E0919B2FF0919C2F848136DE96D88FE1C3
:102F90008D0FE0919B2FF0919C2F9781943011F42D
:102FA0008093752C9681943029F48093742C02C000
:102FB00080E001C081E0DF91CF91089580919A2F48
:102FC00099E04CE0915099F0282F30E02F5F3F4F6F
:102FD00027703327822F429FF001439FF00D112469
:102FE000E656F04D2085222369F38F5FACCF08951C
:102FF000FC0190919A2F9F5C908311820895CF934A
:10300000FC01C081818181110CC0BF01E091982F2A
:10301000F091992F41E082E1199580ED8C0FCF91CD
:1030200092CF80E0CF91089588E1809301060895C2
:103030008091742C823191F030F48031B9F050F4E9
:103040008823A9F132C0833169F090EE980F98304F
:1030500088F02BC088E08093050627C088E0809325
:10306000070623C08091040683FF12C088E0809386
:1030700006061BC09091762C9F5F913019F09093BB
:10308000762C15C01092762C9091040693FD04C006
:1030900088E0809305060BC098E090930606803286
:1030A00021F081508093742C02C01092742C809176
:1030B000752C823191F030F48031C1F050F48823C6
:1030C000A9F132C0833169F090EE980F983088F002
:1030D0002BC080E18093050627C080E1809307061E
:1030E00023C08091040684FF12C080E1809306060D
:1030F0001BC09091772C9F5F913019F09093772CA3
:1031000008951092772C9091040694FD04C080E1FC
:1031100080930506089590E190930606803221F091
:1031200081508093752C08951092752C08959B0101
:10313000AC016BE088E899E09BC020E030E0982F7C
:1031400090718870992321F0F901E656F04D62875D
:10315000882321F0F901E656F04D6187245F3F4F47
:103160002036310579F7992329F090E190930606EE
:103170001092752C882329F088E08093060610921F
:10318000742C08950F931F939B018A01803131F4B1
:10319000E0919B2FF0919C2F478107C0883049F424
:1031A000E0919B2FF0919C2F46816BE088E899E09D
:1031B00020D01F910F9108950F931F93CF93DF930A
:1031C0001F92CDB7DEB7082FAB019E012F5F3F4F97
:1031D0006BE088E899E025D0182F882319F06981E1
:1031E000802FABDF812F0F90DF91CF911F910F9137
:1031F00008950F931F93FC01662379F09491615019
:10320000941309C0BF016F5F7F4FA801C9010E94DD
:10321000366781E003C0B196EFCF80E01F910F9138
:103220000895CF92DF92EF92FF921F93CF93DF9397
:10323000EC017A016901162F112389F0BE016F5F3D
:103240007F4FC7010E942D671150892B31F4FE0179
:10325000C491F601C08381E003C0A196EDCF80E068
:10326000DF91CF911F91FF90EF90DF90CF90089565
:10327000CF930196CCE26623C9F0FC01DA01AD01DF
:103280007491772341F021153105A1F07D9331969A
:1032900021503109F4CF623030F02115310551F061
:1032A0004F5F5F4FCC9361508196E5CF232B11F098
:1032B000FA011082CF910895809120028068809356
:1032C00020028091230280FFFCCF81E080932302C3
:1032D000A0911002B0911102AE5BB109B7FF02C01C
:1032E000A0E0B0E020E038EB4BE050E00E94B06698
:1032F000E0919B2FF0919C2F61157105844F9140B7
:10330000A8F48781873019F480E18093752C868139
:10331000873019F480E18093742C8091962F882354
:1033200089F0E091882FF091892F19948781873057
:1033300019F481E18093752C8681873019F481E13D
:103340008093742C0895BC0183E090E20C94DC64BB
:10335000CF93DF93FC016491EC012196662331F059
:1033600083E090E20E942A65CE01F4CFDF91CF91F5
:103370000895AB01BC0183E090E20C94066580E205
:10338000809362060895CF93DF938091782C8230EA
:1033900031F583E090E20E948F650E945E6083E0D9
:1033A00090E20E94AB65EC0197FD19C0E0919B2F64
:1033B000F0919C2F8781833019F483E18093752CE1
:1033C0008681833019F483E18093742C8C2F6DD621
:1033D000811105C08C2FDF91CF910C94F921DF91E1
:1033E000CF9108958091782C813079F028F0823047
:1033F000D9F0833011F12EC08091680685FF2AC074
:103400008FE08093022081E00CC0809102208150E7
:103410008093022081111EC00E94060E0E94096442
:1034200082E08093782C16C08091680685FD12C0DA
:103430008FE08093022083E0F4CF809102208150BE
:1034400080930220811106C00E94CE630E94340E38
:103450001092782C8091782C823019F476D70C94C5
:10346000FB220895E0919B2FF0919C2F8781823061
:1034700019F481E18093752C8681823019F481E101
:103480008093742C0895E0919B2FF0919C2F87815D
:10349000823019F480E18093752C8681823019F492
:1034A00080E18093742C089583E090E20C94B764DB
:1034B00083E090E20C94FE6529E83CE03F932F9373
:1034C00023E83CE03F932F932CE73CE03F932F937E
:1034D00025E73CE03F932F9325ED3BE03F932F936F
:1034E00022E02F931F929F938F930E94BB678DB70B
:1034F0009EB70E968DBF9EBF85E6089560E072E090
:103500000E94950E85E60895FB0120812F3349F432
:103510002181211106C060E072E00E94D40E85E690
:103520000895CB010E94A60E882371F0E0919B2F95
:10353000F0919C2FCF0185599F4265818F5F9F4FEE
:103540000E94DE6D84E608958AEC0895EF92FF9262
:103550000F931F93CF93DF93CDB7DEB7A097CDBF67
:10356000DEBF7C010091962F10E00115110591F44A
:103570008DEC9BE09F938F9382E08F931F92FF923D
:10358000EF920E94BB670F900F900F900F900F90DB
:103590000F9010C0E091902FF091912FCE010196E5
:1035A00019959801AE014F5F5F4F60E072E0C7016F
:1035B0000E94F80E85E6A096CDBFDEBFDF91CF91C9
:1035C0001F910F91FF90EF900895DF92EF92FF927D
:1035D0000F931F93CF93DF93CDB7DEB7A097CDBFE7
:1035E000DEBF7B010091962F10E066EC7BE0C70107
:1035F0000E942D67892B29F5D12CED2CF12CE0169A
:10360000F10658F40E94DC0EE1E0F0E0EC0FFD1F43
:10361000EE0DFF1D8083D394F0CFE091922FF091B7
:10362000932FCE0101961995E091982FF091992F43
:103630004091962FBE016F5F7F4F83E1199584E61D
:103640000BC0A70160E270E0CE0101960E94320F2C
:103650008017910711F38AECA096CDBFDEBFDF91F2
:10366000CF911F910F91FF90EF90DF900895FC0193
:103670008091972F882311F081E301C080E380833C
:10368000118285E60895FB012181211127C0208147
:10369000213321F481E08093972F04C0203321F45B
:1036A0001092972F84E608952F33C1F41F9220E3E0
:1036B0002F931F9221E32F9320EC3BE03F932F9316
:1036C00022E02F931F929F938F930E94BB678DB729
:1036D0009EB70A968DBF9EBF85E608958AEC089531
:1036E00089E991E1B1D48EE6089589E192E1C7D4E8
:1036F0008EE60895E0ECF4E081818E7F81830E9464
:10370000CE630E94FA0D84E60895E0ECF4E0818136
:103710008E7F81830E94CE630E94000E84E608950E
:10372000E0E8FFE225892F9324892F932DEB3BE0DE
:103730003F932F9322E02F931F929F938F930E948A
:10374000BB678DB79EB708968DBF9EBF85E608956F
:103750002091962F1F922F932AEB3BE03F932F93BC
:1037600022E02F931F929F938F930E94BB678DB788
:103770009EB708968DBF9EBF85E6089540E052E053
:10378000BC0180E002D985E60895FB0120812F333A
:1037900041F42181211105C060E072E0E1D885E6A5
:1037A000089580E004D9882319F0C6DB84E60895E3
:1037B0008AEC089540E052E0BC0181E0E6D885E65D
:1037C0000895FB0120812F3341F42181211105C08F
:1037D00060E072E0C5D885E6089581E0E8D88823E6
:1037E00019F0AADB84E608958AEC089540E052E0DF
:1037F000BC0182E0CAD885E60895FB0120812F3301
:1038000041F42181211105C060E072E0A9D885E66C
:10381000089582E0CCD8882319F08EDB84E60895E1
:103820008AEC089540E052E0BC0183E0AED885E622
:103830000895FB0120812F3341F42181211105C01E
:1038400060E072E08DD885E6089583E0B0D88823E3
:1038500019F072DB84E608958AEC089540E052E0A6
:10386000BC0180E18FDC85E60895FB0120812F33C8
:1038700041F42181211105C060E072E058DC85E649
:10388000089580E199DC882319F056DB84E60895D9
:103890008AEC089540E052E0BC0188E073DC85E6E4
:1038A0000895FB0120812F3341F42181211105C0AE
:1038B00060E072E03CDC85E6089588E07DDC8823EA
:1038C00019F03ADB84E608958AEC089560E072E02E
:1038D00083DA85E60895FB0120812F3341F42181AD
:1038E000211105C060E072E087DA85E60895CB011A
:1038F0005ADA882319F020DB84E608958AEC0895CB
:10390000CF93DF93EC016CD9813028E0920718F057
:103910009C01385002C020E030E03F932F939F93EA
:103920008F932AE93BE03F932F9382E08F931F927E
:10393000DF93CF930E94BB678DB79EB70A968DBF6A
:103940009EBF85E6DF91CF91089582E295E197D3FE
:103950008EE6089557DA84E6089506D984E6089538
:1039600060E072E045DB85E60895CB0148DB81111C
:1039700002C08AEC089584E608950E94D21084E67D
:1039800008950E94021184E608950E945D1084E665
:1039900008958091680680FD02C089E7089588E750
:1039A0000895DF92EF92FF920F931F93CF93DF93CF
:1039B000EC010FEF11E08CECE82E8DE0F82E9CE28C
:1039C000D92EB70189ED93E20E942D67892BD1F0A2
:1039D00001151105B9F0DE01F7012491ED012196E1
:1039E000C8010197222341F00130110529F02C93E1
:1039F000DE0131968C01F1CFDC928C0188E1E80E7A
:103A0000F11CDFCF2197188285E6DF91CF911F91BE
:103A10000F91FF90EF90DF900895FC01209120021C
:103A20002068209320028091230280FFFCCF81E058
:103A300080932302A0911002B0911102AE5BB109F4
:103A4000B7FF02C0A0E0B0E020E038EB4BE050E070
:103A50000E94B066AA27BB279F938F9323E93BE080
:103A60003F932F9382E08F931F92FF93EF930E94D7
:103A7000BB678DB79EB708968DBF9EBF85E608953C
:103A80002EB13FB14091080450910904242B352BED
:103A90003F932F932DE83BE03F932F9322E02F930A
:103AA0001F929F938F930E94BB678DB79EB7089616
:103AB0008DBF9EBF85E608950F931F93CF93DF932D
:103AC0001F921F92CDB7DEB78B01E0919B2FF09133
:103AD0009C2F8581893009F06FC0E091882FF0918B
:103AE000892F199581E08093DD2C60E270E0C80198
:103AF0000E9473670097F9F4F80101900020E9F73C
:103B00003197E01BF10BE0FD59C0F695E795E130E8
:103B1000F10539F487E090E080937E2F90937F2F1A
:103B200037C053E0EE0FFF1F5A95E1F7E0937E2F69
:103B3000F0937F2F2DC098012C5F3F4F8217930782
:103B4000E9F5A80162E070E0CE0101960E94320F13
:103B5000898190E0982F88272A81820F911D809378
:103B60007E2F90937F2F0B5F1F4FF8010190002055
:103B7000E9F73197E01BF10BE0FD20C0F695E795E2
:103B800033E0EE0FFF1F3A95E1F7E817F907B0F0C1
:103B900060917E2F70917F2F695F7F4F83E07695D4
:103BA00067958A95E1F7A8018CE79EE20E94320FA3
:103BB0000E94CD2C8FEF03C089EC01C08AEC0F90DE
:103BC0000F90DF91CF911F910F910895EF92FF9287
:103BD0000F931F93CF93DF931F921F92CDB7DEB742
:103BE0008B01E0919B2FF0919C2F8581893009F00A
:103BF00080C0E091882FF091892F199582E0809301
:103C0000DD2C60E270E0C8010E9473677C01892BA3
:103C100031F5F80101900020E9F73197E01BF10B35
:103C2000E0FD69C0F695E795E130F10539F487E0EC
:103C300090E080937E2F90937F2F47C063E0EE0F3C
:103C4000FF1F6A95E1F7CF0169E070E00E949C6672
:103C5000E81BF90BE0937E2FF0937F2F36C0C8014D
:103C60000496E816F90609F046C0A80162E070E083
:103C7000CE0101960E94320F298130E0322F222797
:103C80008A81280F311D20937E2F30937F2F27307C
:103C9000310529F0C90187709927892B61F58701C2
:103CA0000F5F1F4FF80101900020E9F73197E01BEB
:103CB000F10BE0FD20C0F695E79543E0EE0FFF1F06
:103CC0004A95E1F7E217F307B0F060917E2F70910B
:103CD0007F2F695F7F4F83E0769567958A95E1F73F
:103CE000A8018CE79EE20E94320F0E94CD2C8FEF3C
:103CF00003C089EC01C08AEC0F900F90DF91CF9147
:103D00001F910F91FF90EF900895E0919B2FF091FC
:103D10009C2F85818930A1F4E091882FF091892F23
:103D2000199585E08093DD2C0E94684C0E94CD2C73
:103D300082E79CE48093882C9093892C8FEF0895E0
:103D400089EC0895E0919B2FF0919C2F858189301B
:103D5000A1F4E091882FF091892F199583E0809349
:103D6000DD2C0E94684C0E94CD2C82E79CE480935D
:103D7000882C9093892C8FEF089589EC0895E09119
:103D80009B2FF0919C2F85818930A1F4E091882FA1
:103D9000F091892F199586E08093DD2C0E94684C64
:103DA0000E94CD2C82E79CE48093882C9093892CF0
:103DB0008FEF089589EC0895E0919B2FF0919C2F4F
:103DC0004085518564E6649F9001659F300D112404
:103DD0003F932F9327E83BE03F932F9322E02F93CD
:103DE0001F929F938F930E94BB678DB79EB70896D3
:103DF0008DBF9EBF85E60895CF93DF931F921F92DC
:103E0000CDB7DEB7FB0120812F33B1F42181211121
:103E100013C025E53BE03F932F9322E02F931F92A1
:103E20009F938F930E94BB670F900F900F900F90FE
:103E30000F900F9085E62EC089E592E089839A83E2
:103E4000CE0101969F938F9381E59BE09F938F9383
:103E50007F936F930E94F1670F900F900F900F90D8
:103E60000F900F90892BA9F069817A816935F2E072
:103E70007F0778F4E0919B2FF0919C2F60877187EA
:103E8000CF0182599F428F5F9F4F0E94E76D84E66A
:103E900001C08AEC0F900F90DF91CF910895E091CF
:103EA0009B2FF0919C2F23852F9322852F932EE417
:103EB0003BE03F932F9322E02F931F929F938F938A
:103EC0000E94BB678DB79EB708968DBF9EBF85E6E3
:103ED0000895CF93DF931F921F92CDB7DEB7FB01FA
:103EE00020812F33B1F42181211113C02FE02F93B2
:103EF0002FEF2F932DEF3AE03F932F9322E02F9354
:103F00001F929F938F930E94BB67CDBFDEBF85E654
:103F100030C019821A82CE0101969F938F9389EF48
:103F20009AE09F938F937F936F930E94F1670F9016
:103F30000F900F900F900F900F90892BC9F069810F
:103F40007A81611590E1790798F460933803709352
:103F50003903E0919B2FF0919C2F62877387CF01EB
:103F600080599F428F5F9F4F0E94E76D84E601C09A
:103F70008AEC0F900F90DF91CF910895FB01208183
:103F80002F33D9F42181211121C01F9220E32F93D7
:103F90001F9221E32F9323EF3AE03F932F9322E0E8
:103FA0002F931F929F938F930E94BB678DB79EB7ED
:103FB0000A968DBF9EBF85E60895213311F4DFD3A5
:103FC00003C0203319F400D484E608958AEC0895E0
:103FD000FC0180910008813021F480918C088330AD
:103FE00011F080E301C081E38083118285E60895AA
:103FF000E0919B2FF0919C2F8581893079F4E0919D
:10400000882FF091892F199584E08093DD2C0E94F0
:10401000684C0E94CD2C82E79CE40EC0883091F45D
:10402000E091882FF091892F199581E08093B92D27
:104030000E9438548DE494E58093882C9093892CC9
:104040008FEF089589EC089521E02093872C209329
:10405000862C2CE32093832C25E030E02093812CC8
:104060003093822C10927B2C10927C2C10927D2C01
:1040700010927E2C8093792C90937A2C089527E0CF
:104080002093872C2CE231E02093812C3093822CDA
:1040900010927B2C10927C2C10927D2C10927E2CF6
:1040A0008093792C90937A2C0895CF939091872CBC
:1040B0009530E1F130F4933029F140F5913068F416
:1040C00040C1973009F4A7C008F445C0983009F4FE
:1040D000AAC0993009F432C134C1813041F4109240
:1040E0007F2C1092802C1092842C83E0FBC08430B3
:1040F00011F466E08BC0883109F420C18B3109F0DE
:10410000F3C01CC18093852C84E0ECC090E040910A
:10411000852C2FEF30E0241B31098217930721F4FF
:1041200085E0E0C0981739F165E169C020917F2CE6
:104130003091802CA9014F5F5F4F40937F2C5093AB
:10414000802CF901E350F04D80834038510509F08F
:10415000CBC086E0C7C02091852C9091862C291376
:1041600046C0EDEFFFE290E020E3ED37F207D1F239
:104170002191920FF9CF40917B2C50917C2C609132
:104180007D2C70917E2CE091792CF0917A2C20E896
:1041900030E08DEF9FE21995C82F882311F18091AF
:1041A000862C8F5F8093862C80917B2C90917C2C29
:1041B000A0917D2CB0917E2C80589F4FAF4FBF4F68
:1041C00080937B2C90937C2CA0937D2CB0937E2CA1
:1041D00066E083E090E20E942A6582E08093872C6B
:1041E000B1C068E183E090E20E942A650EC030E031
:1041F000892F90E001972817390739F466E083E0AA
:1042000090E20E942A6582E06DC068E183E090E25E
:104210000E942A6593C0853119F41092862C09C03A
:104220008B3109F48BC0883109F463CF863009F0F3
:104230005DC08091862C8F5F8093862C40917B2C73
:1042400050917C2C60917D2C70917E2CE091792C8A
:10425000F0917A2C20E830E08DEF9FE21995C82F7D
:104260008823D1F161E083E090E20E942A656091A9
:10427000862C83E090E20E942A656091862C6095EE
:1042800083E090E20E942A6560E870E08DEF9FE293
:1042900070D8EDEFFFE260E080E3ED37F80719F04A
:1042A0008191680FF9CF83E090E20E942A658091A6
:1042B0007B2C90917C2CA0917D2CB0917E2C8058F1
:1042C0009F4FAF4FBF4F80937B2C90937C2CA0933C
:1042D0007D2CB0937E2C36C064E083E090E20E9497
:1042E0002A6589E08093872CC1E02CC08531E1F7F5
:1042F00061E083E090E20E942A656091862C83E071
:1043000090E20E942A656091862C609583E090E29D
:104310000E942A6560E870E08DEF9FE22AD8EDEFF9
:10432000FFE260E020E3ED37F20719F08191680FBA
:10433000F9CF83E090E20E942A65D6CF1092872CB5
:10434000D3CFC0E08C2FCF9108958091872C8130FE
:1043500019F0873029F108958091812C9091822C59
:104360009C01215031092093812C3093822C892B80
:1043700031F58091832C9FEF980F9093832C8823A5
:1043800031F065E183E090E20E942A6502C010925C
:10439000872C85E090E08093812C9093822C089567
:1043A0008091812C9091822C9C0121503109209385
:1043B000812C3093822C892B11F41092872C089534
:1043C000E3EAFCE020E030E09491981309C041E278
:1043D000429FC001439F900D11248C55934F089527
:1043E0002F5F3F4FB1962930310571F780E090E0A3
:1043F0000895CF92DF92EF92FF920F931F93CF9386
:10440000982F9F7D91549A3160F090ED980F9A30DB
:1044100040F08F3531F0982F9D7F9D3311F0803221
:10442000D1F49FE9980F9A3108F4805220918D2C95
:1044300030918E2C2F3F91E0390708F0D3C0A901AD
:104440004F5F5F4F40938D2C50938E2CF901E350BA
:10445000F04D8083C7C08D3009F095C0E0918D2C60
:10446000F0918E2CE350F04D108210928D2C109212
:104470008E2C80918C2C8111B5C08091FD2F982FAE
:104480009F7D09F495C08D7F8D3309F491C0EDEFC8
:10449000FFE27F01C191CC2331F0CF3321F0CD3346
:1044A00011F0C032B1F7F70110828CECC82E8DE00C
:1044B000D82E00E010E0B6018DEF9FE20E942D673C
:1044C000892B09F056C01092FD2FCF3349F488E1B3
:1044D000809FF001819FF00D1124EE51F24F18C022
:1044E000B7016F5F7F4FCD3349F488E1809FF001C2
:1044F000819FF00D1124E052F24F20C0C11113C072
:1045000088E1809FF001819FF00D1124E452F24F69
:10451000259134912115310509F44DC08DEF9FE2AD
:10452000F901199514C0C03209F045C088E1809F97
:10453000F001819FF00D1124E252F24F2591349148
:1045400021153105C1F18DEF9FE2F90119958F3FDA
:1045500099F581E080938C2C8EB19FB12091080455
:1045600030910904822B932B80938A2C90938B2C6F
:1045700039C00F5F1F4FF8E1CF0ED11C0732110574
:1045800009F099CF15C0883061F480918D2C9091FD
:104590008E2C009739F1019780938D2C90938E2C5F
:1045A00021C08B31F9F410928D2C10928E2C1AC0F0
:1045B00088ECC0E002C089ECC1E002DF0E94A819CB
:1045C00080EA9CE00E94A819CC2361F08091FD2F25
:1045D000882341F08DEF9FE20E94A3198DE99CE0B2
:1045E0000E94A81981E0CF911F910F91FF90EF9049
:1045F000DF90CF90089580918C2C882399F1E091E1
:104600009B2FF0919C2F208531852115310551F18B
:104610008EB19FB14091080450910904842B952BD1
:1046200040918A2C50918B2C841B950B64E670E092
:104630000E949C6662177307A8F010928C2C8BEC7A
:10464000BFDE0E94A8198AE99CE00E94A819E091A7
:10465000882CF091892C309729F019951092882C8C
:104660001092892C089580918C2C8823A9F01092A7
:104670008C2C8BECA5DE0E94A8198AE99CE00E9494
:10468000A819E091882CF091892C309729F0199580
:104690001092882C1092892C0895CF93DF939091DB
:1046A0008C2C9923A9F0EB0110928C2C89DE0E94AE
:1046B000A81987E99CE00E94A819209749F0CE012B
:1046C0000E94A31984E99CE0DF91CF910C94A81972
:1046D000DF91CF910895EF92FF920F931F93CF93A5
:1046E0007C019B01613081E0780710F020E031E02F
:1046F0008B01021B130BA70160E072E08DEF9FE2BC
:104700000E94F80E8DEF9FE20E94A319C1E00130D4
:1047100081E01807B0F01A956C2F70E0762F6627AD
:10472000A701460F571F20E032E060E072E08DEFF6
:104730009FE20E94F80E8DEF9FE20E94A319CF5FC7
:10474000E6CF0115110591F0EC2FF0E0FE2FEE27DA
:10475000A7014E0F5F1F980160E072E08DEF9FE2AE
:104760000E94F80E8DEF9FE20E94A31981E99CE060
:10477000CF911F910F91FF90EF900C94A819809109
:104780000008813029F480918C08833009F4089561
:104790008091912C811117C081E08093000893E0F3
:1047A00090938C0880938F2C1092902C8EB19FB197
:1047B0002091080430910904822B932B8093962C2E
:1047C0009093972C0895089510928C0810920008E9
:1047D000EFE8FCE210821182089590918F2C9923CA
:1047E000F1F08091902C811115C020918F2C222303
:1047F000B9F02EB13FB14091080450910904242B27
:10480000352B4091962C5091972C241B350B263438
:10481000310530F081E08093902C892F089581E05C
:104820000895CF93DF931F92CDB7DEB78091912C7F
:104830008823D1F02EB13FB1409108045091090472
:10484000242B352B4091942C5091952C241B350B07
:104850004091922C5091932C2417350728F01092F8
:10486000912C89838CDF89810F90DF91CF910895FE
:10487000E0919B2FF0919C2F828793878093380340
:10488000909339030895E0919B2FF0919C2F82859E
:10489000938540968287938780933803909339035A
:1048A000828593850895E0919B2FF0919C2F80E95C
:1048B00091E082879387809338039093390308951A
:1048C000A0E2B6E081E015968C9315972DEF31E3C9
:1048D00028B939B92DE732E32AB93BB910B813B872
:1048E00012B816B817B811B8E0E0F9E010A211A29A
:1048F0002FEF30E026A337A32FEF3FEF20A731A7FC
:10490000808398E8938390E1948793E097831C9643
:104910008C931C9782E01A968C930895E0E0F9E05E
:1049200013828FE790E086AB97AB81E190E080AF98
:1049300091AFE0E0FAE010A211A28FEF9FEF86A303
:1049400097A389E88383168281E084878EE0808341
:1049500010922A0608951F920F920FB60F921124FB
:1049600008B60F9218BE09B60F9219BE0BB60F9279
:104970001BBE2F933F934F935F936F937F938F93C0
:104980009F93AF93BF93EF93FF93E0917C2FF091B0
:104990007D2F1995FF91EF91BF91AF919F918F91CD
:1049A0007F916F915F914F913F912F910F900BBE2F
:1049B0000F9009BE0F9008BE0F900FBE0F901F9072
:1049C00018951F920F920FB60F92112408B60F92EE
:1049D00018BE0BB60F921BBE2F933F938F939F93DE
:1049E000EF93FF932091280693B1267081E009F0A0
:1049F00080E0990F892B83B982B1882309F464C0C0
:104A000012B883B18770873059F51092000980E1A0
:104A100080930C091092030A1B9B03C08CEA94E05C
:104A200002C08CE694E08093260A9093270A82E0E5
:104A300081B981E080930C0A83E08093060A86B1F5
:104A400097B1877049F090B18F5F893011F09695DA
:104A5000FBCFE8B1F9B1908381E08093982C37C007
:104A600093B1892F8C7099F192FB992790F981E08D
:104A7000982781B181111BC080B18695911190E872
:104A8000892B80B926B137B12F5F3F4F26B937B98F
:104A900027703327232BD9F4E8B1F9B19F012F5F99
:104AA0003F4F28B939B9808381E081B910C081B105
:104AB000813069F4EAB1FBB19F012F5F3F4F2AB902
:104AC0003BB9908311B803C082B1809582B988E860
:104AD00080930309FF91EF919F918F913F912F91C7
:104AE0000F900BBE0F9008BE0F900FBE0F901F903F
:104AF00018951F920F920FB60F92112408B60F92BD
:104B000018BE0BB60F921BBE2F933F938F939F93AC
:104B1000EF93FF9381B1823008F49DC081B18D3055
:104B200008F099C0E1B1F0E0EE0FFF1FEA5DFF4D24
:104B30000190F081E02D19948FE790E08093260A90
:104B40009093270A88C08E9A8EE0809340088FE366
:104B500090E08093260A9093270A85E06FC08E9894
:104B600086E081B98FEF82B914B815B8E8B1F9B110
:104B7000808180B970C0009B05C08E9A82B18095FB
:104B800082B901C08E9887E059C0009B02C08E9800
:104B900001C08E9A80B1869580B984B195B1019695
:104BA00084B995B984B195B187709927892B11F48F
:104BB00088E044C024B135B186B197B128173907D0
:104BC000B1F52BC0EAB1FBB1309711F0808101C083
:104BD00082B1882311F08E9A01C08E9889E02EC090
:104BE000EAB1FBB1309751F08081882311F08E98A3
:104BF00001C08E9A3196EAB9FBB908C082B1882308
:104C000011F08E9801C08E9A8FEF82B924B135B120
:104C100086B197B12817390711F48AE00FC0E8B1BF
:104C2000F9B1CF01019688B999B9818180B986E03F
:104C300005C08E988BE002C08E988CE081B90BC0C5
:104C40001092000A1092060A109240081092410831
:104C500081E08093992CFF91EF919F918F913F91EB
:104C60002F910F900BBE0F9008BE0F900FBE0F90AC
:104C70001F901895CF93DF93E8E9FCE21082118230
:104C80008BE697E280937A2E90937B2E8EE894E2C7
:104C900080937C2F90937D2FE0E4F6E0128A84E0ED
:104CA0008283C0E8D1E082E68E83A0E2B6E081E0B4
:104CB00016968C93169711968C93119796E01296F0
:104CC0009C93129751968C93519732E052963C9355
:104CD00052971A961C921A971B961C921B979FE04C
:104CE00019969C9399E598832AE529839A8390E401
:104CF00091839683A0EBB0E012962C911297207FBF
:104D000012962C93129712962C911297226012965B
:104D10002C9320E321832683908B8683358383E045
:104D20008183E0E0F8E083E1818321E030E026A3A5
:104D300037A320A731A7E0E8F8E014868083E0E2FB
:104D4000F3E01382118288E0828391E19083A09145
:104D50009B2FB0919C2F1A962D913C911B97208FE1
:104D6000318FE0E8F3E09CE3928380839383818337
:104D7000DF91CF91A5CDA0E2B6E01A961C921A97CA
:104D8000E8E9FCE210821182E0E0F9E0108213828F
:104D9000178280E18487E0E0FAE0108213821682B5
:104DA00081E08487E0E4F8E01082118216968C930B
:104DB0008E980895CF93DF938091982C882309F4DF
:104DC0007EC01092982CC6B1D7B1C730D10508F477
:104DD00071C0AE01495F5F4F93E0569547959A9534
:104DE000E1F7E091982FF091992F6DEF71E380E456
:104DF0001995E0919B2FF0919C2F8781883019F4B1
:104E000083E18093752C8681883019F483E1809347
:104E1000742CE0918E2FF0918F2FBE018DEF91E3D6
:104E20001995EC0194FF06C0DF7E8DE792E38AB905
:104E30009BB902C01AB81BB82097E1F1AE01495FD7
:104E40005F4F83E0569547958A95E1F7E091982F5B
:104E5000F091992F6DEF71E381E41995E0919B2F0B
:104E6000F0919C2F8781893019F483E18093752C10
:104E70008681893019F483E18093742CC6B9D7B93F
:104E80008DEF91E388B999B910926008109261088A
:104E90008FE090E0809366089093670888E090E048
:104EA00080936A0890936B0883E28093410883E0C3
:104EB00081B905C01092000A1092060A01DD8091A6
:104EC000992C882329F01092992CDF91CF91F8CC5E
:104ED000DF91CF910895E0E0F9E080E484871782C4
:104EE000E0E8F3E082E0878389EB81838DEF91E353
:104EF0008AB99BB981E090E084B995B916B88EB1B2
:104F00009FB12091080430910904822B932B809348
:104F10009B2C90939C2C81E080939F2C18B817B801
:104F200010929A2C88E0809387060895CF93DF93A0
:104F3000E0E4F6E0128A84E08283C0E8D1E082E611
:104F40008E83A0E2B6E081E016968C9316971196B8
:104F50008C93119796E012969C93129751968C938E
:104F6000519732E052963C9352971A961C921A9798
:104F70001B961C921B979FE019969C93199799E595
:104F800098832AE529839A8390E491839683C0EBE2
:104F9000D0E02A81207F2A832A8122602A8320E38D
:104FA00021832683908B8683358393E09183E0E091
:104FB000F8E093E1918321E030E026A337A320A716
:104FC00031A7E0E8F8E014869083E0E2F3E0138292
:104FD000118298E0928321E12083C0919B2FD09190
:104FE0009C2F2A853B85208F318FE0E8F3E02CE36E
:104FF00022839083238391832BE637E220937A2EBA
:1050000030937B2E15968C93E0E0F9E02FEF30E0A3
:1050100026A337A312A613A614A615A610821682DD
:10502000178280831092000A10929A2CEDE9FCE21C
:10503000108212821182DF91CF91089581E08093D6
:105040002606C2DBE0E0F9E010821782E0E0FAE039
:1050500010821782EDE9FCE211821282108208951B
:105060001F920F920FB60F92112408B60F9218BE1E
:1050700009B60F9219BE0BB60F921BBE2F933F932A
:105080004F935F936F937F938F939F93AF93BF9350
:10509000EF93FF93E0917A2EF0917B2E1995FF917B
:1050A000EF91BF91AF919F918F917F916F915F91A0
:1050B0004F913F912F910F900BBE0F9009BE0F9013
:1050C00008BE0F900FBE0F901F901895E0E0F9E01A
:1050D0008FEF94E086A397A380E6848780E387839D
:1050E0008FEF90E086AB97AB88E0809387060895BA
:1050F0001F920F920FB60F92112408B60F9218BE8E
:105100000BB60F921BBE2F933F934F935F938F93DA
:105110009F93EF93FF931092070A1092000A109248
:10512000470910924009809181038E7F809381030B
:1051300084B195B180FF1AC0379B03C086B18695B4
:1051400003C086B18695806886B984B195B1019611
:1051500084B995B987709927892B41F4EAB1FBB1DD
:10516000CF0101968AB99BB986B1808384B195B18C
:1051700087709927892BC9F0E4B1F5B186B144B1A4
:1051800055B193E0F695E7959A95E1F7E350FE4C1B
:1051900090E04770552728E030E0241B350B02C013
:1051A000959587952A95E2F7808381E080939E2CE0
:1051B00010929F2C8FEF9FEF8093260A9093270ADF
:1051C0001092200A1092210A1092060A1092070AE1
:1051D0001092030A84E08093000A83E080939A2C63
:1051E000FF91EF919F918F915F914F913F912F91FF
:1051F0000F900BBE0F9008BE0F900FBE0F901F9028
:1052000018951F920F920FB60F92112408B60F92A5
:1052100018BE0BB60F921BBE8F93EF93FF93E0E87F
:10522000F3E081818F7C8183E0E0FAE088E883838A
:1052300081E08083FF91EF918F910F900BBE0F90D3
:1052400008BE0F900FBE0F901F9018951F920F92DF
:105250000FB60F92112408B60F9218BE0BB60F921C
:105260001BBE8F939F93EF93FF93809160091092E1
:1052700060091092610993E090934009813520F410
:10528000813308F472C01BC08137E8F484B195B152
:1052900080FF2EC086B18695806886B984B195B1AD
:1052A000019684B995B987709927892B41F4EAB1A1
:1052B000FBB1CF0101968AB99BB986B1808386B1D3
:1052C000869580682CC086B18695806886B984B141
:1052D00095B1019684B995B987709927892B41F4C6
:1052E000EAB1FBB1CF0101968AB99BB986B180833F
:1052F00086B18695806886B984B195B1019684B9E6
:1053000095B987709927892B41F4EAB1FBB1CF0198
:1053100001968AB99BB986B1808386B1869586B994
:1053200084B195B1019684B995B987709927892B75
:1053300041F4EAB1FBB1CF0101968AB99BB986B1BC
:10534000808386B1869586B984B195B1019684B97A
:1053500095B987709927892B41F4EAB1FBB1CF0148
:1053600001968AB99BB986B18083FF91EF919F9195
:105370008F910F900BBE0F9008BE0F900FBE0F9035
:105380001F9018950F931F93CF93DF93CDB7DEB780
:10539000DA95CDBFDEBF80919F2C882309F483C0AE
:1053A0008EB19FB1409108045091090420919B2C2B
:1053B00030919C2C842B952B821B930B20911E20CB
:1053C00030911F202F5F3F4F2817390708F06BC01F
:1053D0001092070A1092000A109247091092400991
:1053E000809181038E7F8093810384B195B180FF8A
:1053F0001AC0379B03C086B1869503C086B18695D7
:10540000806886B984B195B1019684B995B98770E1
:105410009927892B41F4EAB1FBB1CF0101968AB9F2
:105420009BB986B1808384B195B187709927892B08
:10543000C9F0E4B1F5B186B144B155B113E0F695C8
:10544000E7951A95E1F7E350FE4C90E04770552739
:1054500028E030E0241B350B02C0959587952A95EE
:10546000E2F7808381E080939E2C10929F2C2FEF97
:105470003FEF2093260A3093270A1092200A1092B9
:10548000210A1092060A1092070A1092030A94E069
:105490009093000A93E090939A2C14B815B88093D7
:1054A0009E2C10929F2CBDD981116FC296D9882352
:1054B00009F46BC280919F2C811167C280919D2C51
:1054C000811105C080919E2C882309F45EC28091D1
:1054D0009A2C833041F48091200A9091210A8532E0
:1054E000914008F452C280919E2C882309F4A2C0F6
:1054F00084B195B1892B09F49DC084B195B1089709
:1055000018F414B815B896C044B155B1495F5F4F4F
:10551000B3E056954795BA95E1F76DEF71E3CE018B
:1055200001960E9452678DEF91E38AB99BB944B10D
:1055300055B114B815B8898186958695898322E07E
:1055400030E024173507B0F5F901A3E0F695E795AB
:10555000AA95E1F781E090E08C0F9D1FE80FF91FFD
:105560008081982F9695969590838370813049F02D
:1055700030F08230D1F486B18695806804C081E035
:1055800015C086B1869586B984B195B1019684B966
:1055900095B987709927892B41F4EAB1FBB1CF0106
:1055A00001968AB99BB986B1808380E02E5F3F4F18
:1055B000882339F284B195B187709927892BC9F076
:1055C000E4B1F5B186B144B155B173E0F695E79514
:1055D0007A95E1F7E350FE4C90E04770552728E0BC
:1055E00030E0241B350B02C0959587952A95E2F78C
:1055F0008083E0919B2FF0919C2F8781883019F454
:1056000083E18093752C8681883019F483E180933F
:10561000742C44B155B1495F5F4F63E0569547958F
:105620006A95E1F7E091982FF091992F6DEF71E372
:1056300082E4199510929D2C10929E2C64B175B144
:10564000E0918E2FF0918F2F8DEF91E3199584B912
:1056500095B984B195B1892B09F497C189E88093F4
:1056600081031092000A1092200A1092210A2FEF53
:105670003FEF2093260A3093270A8FE590E080932E
:10568000280A9093290A1092060A80E180930C0A56
:1056900093E09093070A1092600910926109209399
:1056A00066093093670920EA30E020936809309357
:1056B00069091092460980934C0981E0809347095B
:1056C00081E18093800110928801109280031092F2
:1056D0002906E0919B2FF0919C2F8781893019F446
:1056E00083E18093752C8681893019F483E180935E
:1056F000742C44B155B1495F5F4F33E056954795DF
:105700003A95E1F7E091982FF091992F6DEF71E3C1
:1057100083E4199504B115B1013094E0190708F03C
:1057200024C114B815B8A801495F5F4F23E056950E
:1057300047952A95E1F76DEF71E38DE792E30E94BB
:1057400052678DEF91E38AB99BB986B186958068DF
:1057500086B984B195B1019684B995B987709927B6
:10576000892B39F48EEF91E38AB99BB986B1809386
:10577000FD3186B1869586B984B195B1019684B91B
:1057800095B987709927892B41F4EAB1FBB1CF0114
:1057900001968AB99BB986B1808380E041E050E0F0
:1057A000EDE7F2E30417150708F495C0908190FF28
:1057B0002BC086B1869586B984B195B1019684B91E
:1057C00095B987709927892B41F4AAB1BBB1CD0156
:1057D00001968AB99BB986B18C9386B1869580680B
:1057E00086B984B195B1019684B995B98770992726
:1057F000892B09F063C0AAB1BBB1CD0101968AB96A
:105800009BB986B18C935AC0882351F186B1869595
:1058100086B984B195B1019684B995B987709927F5
:10582000892B41F4AAB1BBB1CD0101968AB99BB9CC
:1058300086B18C9386B1869586B984B195B101966F
:1058400084B995B987709927892B41F4AAB1BBB166
:10585000CD0101968AB99BB986B18C9380E02FC0A7
:1058600096B19695906896B924B135B12F5F3F4FA8
:1058700024B935B927703327232B49F4AAB1BBB11A
:105880009D012F5F3F4F2AB93BB996B19C9396B1CA
:10589000969596B924B135B12F5F3F4F24B935B9EC
:1058A00027703327232BD1F6AAB1BBB19D012F5FFF
:1058B0003F4F2AB93BB996B19C9301C081E09081DA
:1058C000969590839A0127703327232B09F43196FC
:1058D0004F5F5F4F67CF811129C086B18695806881
:1058E00086B984B195B1019684B995B98770992725
:1058F000892B41F4EAB1FBB1CF0101968AB99BB97A
:1059000086B1808386B1869586B984B195B10196BA
:1059100084B995B987709927892B41F4EAB1FBB115
:10592000CF0101968AB99BB986B1808384B195B1C4
:1059300087709927892BC9F0E4B1F5B186B144B1DC
:1059400055B193E0F695E7959A95E1F7E350FE4C53
:1059500090E04770552728E030E0241B350B02C04B
:10596000959587952A95E2F7808381E080939A2C1C
:105970008DEF91E38AB99BB980E280930C098CE0AA
:105980008093070985E58A95F1F7D395CDBFDEBFF2
:10599000DF91CF911F910F91089514B815B881E050
:1059A00080939D2C0C94BF231092070A1092000A3A
:1059B0001092470910924009809181038E7F809355
:1059C000810384B195B180FF1AC0379B03C086B1B3
:1059D000869503C086B18695806886B984B195B1F5
:1059E000019684B995B987709927892B41F4EAB15A
:1059F000FBB1CF0101968AB99BB986B1808384B18E
:105A000095B187709927892BC9F0E4B1F5B186B1BA
:105A100044B155B193E0F695E7959A95E1F7E350D7
:105A2000FE4C90E04770552728E030E0241B350BF2
:105A300002C0959587952A95E2F7808381E080934F
:105A40009E2C10929F2C8FEF9FEF8093260A9093AD
:105A5000270A1092200A1092210A1092060A109228
:105A6000070A1092030A84E08093000A83E080937F
:105A70009A2C10929A2C10929E2C10929D2C0C9481
:105A8000E42380916009109260091092610993E00B
:105A900090934009813520F4813308F4A7C003C0F6
:105AA000813758F165C08091A02C9091A12C80FF86
:105AB0000AC08091A02C9091A12C0297C0F085B1D2
:105AC0008695806802C085B1869585B986B197B103
:105AD000019686B997B987709927892B41F4ECB163
